{
  "_format": "hh-sol-artifact-1",
  "contractName": "Domains",
  "sourceName": "contracts/Doamins.sol",
  "abi": [
    {
      "inputs": [
        {
          "internalType": "string",
          "name": "_tld",
          "type": "string"
        }
      ],
      "stateMutability": "payable",
      "type": "constructor"
    },
    {
      "inputs": [],
      "name": "AlreadyRegistered",
      "type": "error"
    },
    {
      "inputs": [
        {
          "internalType": "string",
          "name": "name",
          "type": "string"
        }
      ],
      "name": "InvalidName",
      "type": "error"
    },
    {
      "inputs": [],
      "name": "Unauthorized",
      "type": "error"
    },
    {
      "anonymous": false,
      "inputs": [
        {
          "indexed": true,
          "internalType": "address",
          "name": "owner",
          "type": "address"
        },
        {
          "indexed": true,
          "internalType": "address",
          "name": "approved",
          "type": "address"
        },
        {
          "indexed": true,
          "internalType": "uint256",
          "name": "tokenId",
          "type": "uint256"
        }
      ],
      "name": "Approval",
      "type": "event"
    },
    {
      "anonymous": false,
      "inputs": [
        {
          "indexed": true,
          "internalType": "address",
          "name": "owner",
          "type": "address"
        },
        {
          "indexed": true,
          "internalType": "address",
          "name": "operator",
          "type": "address"
        },
        {
          "indexed": false,
          "internalType": "bool",
          "name": "approved",
          "type": "bool"
        }
      ],
      "name": "ApprovalForAll",
      "type": "event"
    },
    {
      "anonymous": false,
      "inputs": [
        {
          "indexed": true,
          "internalType": "address",
          "name": "from",
          "type": "address"
        },
        {
          "indexed": true,
          "internalType": "address",
          "name": "to",
          "type": "address"
        },
        {
          "indexed": true,
          "internalType": "uint256",
          "name": "tokenId",
          "type": "uint256"
        }
      ],
      "name": "Transfer",
      "type": "event"
    },
    {
      "inputs": [
        {
          "internalType": "address",
          "name": "to",
          "type": "address"
        },
        {
          "internalType": "uint256",
          "name": "tokenId",
          "type": "uint256"
        }
      ],
      "name": "approve",
      "outputs": [],
      "stateMutability": "nonpayable",
      "type": "function"
    },
    {
      "inputs": [
        {
          "internalType": "address",
          "name": "owner",
          "type": "address"
        }
      ],
      "name": "balanceOf",
      "outputs": [
        {
          "internalType": "uint256",
          "name": "",
          "type": "uint256"
        }
      ],
      "stateMutability": "view",
      "type": "function"
    },
    {
      "inputs": [
        {
          "internalType": "address payable",
          "name": "_new",
          "type": "address"
        }
      ],
      "name": "changeOwner",
      "outputs": [],
      "stateMutability": "nonpayable",
      "type": "function"
    },
    {
      "inputs": [
        {
          "internalType": "string",
          "name": "",
          "type": "string"
        }
      ],
      "name": "domains",
      "outputs": [
        {
          "internalType": "address",
          "name": "",
          "type": "address"
        }
      ],
      "stateMutability": "view",
      "type": "function"
    },
    {
      "inputs": [
        {
          "internalType": "string",
          "name": "name",
          "type": "string"
        }
      ],
      "name": "getAddress",
      "outputs": [
        {
          "internalType": "address",
          "name": "",
          "type": "address"
        }
      ],
      "stateMutability": "view",
      "type": "function"
    },
    {
      "inputs": [],
      "name": "getAllNames",
      "outputs": [
        {
          "internalType": "string[]",
          "name": "",
          "type": "string[]"
        }
      ],
      "stateMutability": "view",
      "type": "function"
    },
    {
      "inputs": [
        {
          "internalType": "uint256",
          "name": "tokenId",
          "type": "uint256"
        }
      ],
      "name": "getApproved",
      "outputs": [
        {
          "internalType": "address",
          "name": "",
          "type": "address"
        }
      ],
      "stateMutability": "view",
      "type": "function"
    },
    {
      "inputs": [
        {
          "internalType": "string",
          "name": "name",
          "type": "string"
        }
      ],
      "name": "getRecord",
      "outputs": [
        {
          "internalType": "string",
          "name": "",
          "type": "string"
        }
      ],
      "stateMutability": "view",
      "type": "function"
    },
    {
      "inputs": [
        {
          "internalType": "address",
          "name": "owner",
          "type": "address"
        },
        {
          "internalType": "address",
          "name": "operator",
          "type": "address"
        }
      ],
      "name": "isApprovedForAll",
      "outputs": [
        {
          "internalType": "bool",
          "name": "",
          "type": "bool"
        }
      ],
      "stateMutability": "view",
      "type": "function"
    },
    {
      "inputs": [],
      "name": "isOwner",
      "outputs": [
        {
          "internalType": "bool",
          "name": "",
          "type": "bool"
        }
      ],
      "stateMutability": "view",
      "type": "function"
    },
    {
      "inputs": [],
      "name": "name",
      "outputs": [
        {
          "internalType": "string",
          "name": "",
          "type": "string"
        }
      ],
      "stateMutability": "view",
      "type": "function"
    },
    {
      "inputs": [
        {
          "internalType": "uint256",
          "name": "",
          "type": "uint256"
        }
      ],
      "name": "names",
      "outputs": [
        {
          "internalType": "string",
          "name": "",
          "type": "string"
        }
      ],
      "stateMutability": "view",
      "type": "function"
    },
    {
      "inputs": [],
      "name": "owner",
      "outputs": [
        {
          "internalType": "address payable",
          "name": "",
          "type": "address"
        }
      ],
      "stateMutability": "view",
      "type": "function"
    },
    {
      "inputs": [
        {
          "internalType": "uint256",
          "name": "tokenId",
          "type": "uint256"
        }
      ],
      "name": "ownerOf",
      "outputs": [
        {
          "internalType": "address",
          "name": "",
          "type": "address"
        }
      ],
      "stateMutability": "view",
      "type": "function"
    },
    {
      "inputs": [
        {
          "internalType": "string",
          "name": "name",
          "type": "string"
        }
      ],
      "name": "price",
      "outputs": [
        {
          "internalType": "uint256",
          "name": "",
          "type": "uint256"
        }
      ],
      "stateMutability": "pure",
      "type": "function"
    },
    {
      "inputs": [
        {
          "internalType": "string",
          "name": "",
          "type": "string"
        }
      ],
      "name": "records",
      "outputs": [
        {
          "internalType": "string",
          "name": "",
          "type": "string"
        }
      ],
      "stateMutability": "view",
      "type": "function"
    },
    {
      "inputs": [
        {
          "internalType": "string",
          "name": "name",
          "type": "string"
        }
      ],
      "name": "register",
      "outputs": [],
      "stateMutability": "payable",
      "type": "function"
    },
    {
      "inputs": [
        {
          "internalType": "address",
          "name": "from",
          "type": "address"
        },
        {
          "internalType": "address",
          "name": "to",
          "type": "address"
        },
        {
          "internalType": "uint256",
          "name": "tokenId",
          "type": "uint256"
        }
      ],
      "name": "safeTransferFrom",
      "outputs": [],
      "stateMutability": "nonpayable",
      "type": "function"
    },
    {
      "inputs": [
        {
          "internalType": "address",
          "name": "from",
          "type": "address"
        },
        {
          "internalType": "address",
          "name": "to",
          "type": "address"
        },
        {
          "internalType": "uint256",
          "name": "tokenId",
          "type": "uint256"
        },
        {
          "internalType": "bytes",
          "name": "data",
          "type": "bytes"
        }
      ],
      "name": "safeTransferFrom",
      "outputs": [],
      "stateMutability": "nonpayable",
      "type": "function"
    },
    {
      "inputs": [
        {
          "internalType": "address",
          "name": "operator",
          "type": "address"
        },
        {
          "internalType": "bool",
          "name": "approved",
          "type": "bool"
        }
      ],
      "name": "setApprovalForAll",
      "outputs": [],
      "stateMutability": "nonpayable",
      "type": "function"
    },
    {
      "inputs": [
        {
          "internalType": "string",
          "name": "name",
          "type": "string"
        },
        {
          "internalType": "string",
          "name": "record",
          "type": "string"
        }
      ],
      "name": "setRecord",
      "outputs": [],
      "stateMutability": "nonpayable",
      "type": "function"
    },
    {
      "inputs": [
        {
          "internalType": "bytes4",
          "name": "interfaceId",
          "type": "bytes4"
        }
      ],
      "name": "supportsInterface",
      "outputs": [
        {
          "internalType": "bool",
          "name": "",
          "type": "bool"
        }
      ],
      "stateMutability": "view",
      "type": "function"
    },
    {
      "inputs": [],
      "name": "symbol",
      "outputs": [
        {
          "internalType": "string",
          "name": "",
          "type": "string"
        }
      ],
      "stateMutability": "view",
      "type": "function"
    },
    {
      "inputs": [],
      "name": "tld",
      "outputs": [
        {
          "internalType": "string",
          "name": "",
          "type": "string"
        }
      ],
      "stateMutability": "view",
      "type": "function"
    },
    {
      "inputs": [
        {
          "internalType": "uint256",
          "name": "tokenId",
          "type": "uint256"
        }
      ],
      "name": "tokenURI",
      "outputs": [
        {
          "internalType": "string",
          "name": "",
          "type": "string"
        }
      ],
      "stateMutability": "view",
      "type": "function"
    },
    {
      "inputs": [
        {
          "internalType": "address",
          "name": "from",
          "type": "address"
        },
        {
          "internalType": "address",
          "name": "to",
          "type": "address"
        },
        {
          "internalType": "uint256",
          "name": "tokenId",
          "type": "uint256"
        }
      ],
      "name": "transferFrom",
      "outputs": [],
      "stateMutability": "nonpayable",
      "type": "function"
    },
    {
      "inputs": [
        {
          "internalType": "string",
          "name": "name",
          "type": "string"
        }
      ],
      "name": "valid",
      "outputs": [
        {
          "internalType": "bool",
          "name": "",
          "type": "bool"
        }
      ],
      "stateMutability": "pure",
      "type": "function"
    },
    {
      "inputs": [],
      "name": "withdraw",
      "outputs": [],
      "stateMutability": "nonpayable",
      "type": "function"
    }
  ],
  "bytecode": "0x6080604052604051806108a0016040528061086b81526020016200551361086b9139600d9081620000319190620004ff565b506040518060400160405280600d81526020017f3c2f746578743e3c2f7376673e00000000000000000000000000000000000000815250600e9081620000789190620004ff565b5060405162005d7e38038062005d7e83398181016040528101906200009e91906200074a565b6040518060400160405280601181526020017f4e6f7661204e616d6520536572766976650000000000000000000000000000008152506040518060400160405280600381526020017f4e4e53000000000000000000000000000000000000000000000000000000000081525081600090816200011b9190620004ff565b5080600190816200012d9190620004ff565b50505080600c9081620001419190620004ff565b5062000171604051806060016040528060258152602001620054ee60259139620001b960201b62001c121760201c565b33600860006101000a81548173ffffffffffffffffffffffffffffffffffffffff021916908373ffffffffffffffffffffffffffffffffffffffff1602179055505062000811565b6200025981604051602401620001d09190620007ed565b6040516020818303038152906040527f41304fac000000000000000000000000000000000000000000000000000000007bffffffffffffffffffffffffffffffffffffffffffffffffffffffff19166020820180517bffffffffffffffffffffffffffffffffffffffffffffffffffffffff83818316178352505050506200025c60201b60201c565b50565b60008151905060006a636f6e736f6c652e6c6f679050602083016000808483855afa5050505050565b600081519050919050565b7f4e487b7100000000000000000000000000000000000000000000000000000000600052604160045260246000fd5b7f4e487b7100000000000000000000000000000000000000000000000000000000600052602260045260246000fd5b600060028204905060018216806200030757607f821691505b6020821081036200031d576200031c620002bf565b5b50919050565b60008190508160005260206000209050919050565b60006020601f8301049050919050565b600082821b905092915050565b600060088302620003877fffffffffffffffffffffffffffffffffffffffffffffffffffffffffffffffff8262000348565b62000393868362000348565b95508019841693508086168417925050509392505050565b6000819050919050565b6000819050919050565b6000620003e0620003da620003d484620003ab565b620003b5565b620003ab565b9050919050565b6000819050919050565b620003fc83620003bf565b620004146200040b82620003e7565b84845462000355565b825550505050565b600090565b6200042b6200041c565b62000438818484620003f1565b505050565b5b8181101562000460576200045460008262000421565b6001810190506200043e565b5050565b601f821115620004af57620004798162000323565b620004848462000338565b8101602085101562000494578190505b620004ac620004a38562000338565b8301826200043d565b50505b505050565b600082821c905092915050565b6000620004d460001984600802620004b4565b1980831691505092915050565b6000620004ef8383620004c1565b9150826002028217905092915050565b6200050a8262000285565b67ffffffffffffffff81111562000526576200052562000290565b5b620005328254620002ee565b6200053f82828562000464565b600060209050601f83116001811462000577576000841562000562578287015190505b6200056e8582620004e1565b865550620005de565b601f198416620005878662000323565b60005b82811015620005b1578489015182556001820191506020850194506020810190506200058a565b86831015620005d15784890151620005cd601f891682620004c1565b8355505b6001600288020188555050505b505050505050565b6000604051905090565b600080fd5b600080fd5b600080fd5b600080fd5b6000601f19601f8301169050919050565b620006208262000604565b810181811067ffffffffffffffff8211171562000642576200064162000290565b5b80604052505050565b600062000657620005e6565b905062000665828262000615565b919050565b600067ffffffffffffffff82111562000688576200068762000290565b5b620006938262000604565b9050602081019050919050565b60005b83811015620006c0578082015181840152602081019050620006a3565b60008484015250505050565b6000620006e3620006dd846200066a565b6200064b565b905082815260208101848484011115620007025762000701620005ff565b5b6200070f848285620006a0565b509392505050565b600082601f8301126200072f576200072e620005fa565b5b815162000741848260208601620006cc565b91505092915050565b600060208284031215620007635762000762620005f0565b5b600082015167ffffffffffffffff811115620007845762000783620005f5565b5b620007928482850162000717565b91505092915050565b600082825260208201905092915050565b6000620007b98262000285565b620007c581856200079b565b9350620007d7818560208601620006a0565b620007e28162000604565b840191505092915050565b60006020820190508181036000830152620008098184620007ac565b905092915050565b614ccd80620008216000396000f3fe6080604052600436106101b75760003560e01c80638da5cb5b116100ec578063bf40fac11161008a578063e985e9c511610064578063e985e9c514610668578063f2c298be146106a5578063fb825e5f146106c1578063fe2c6198146106ec576101b7565b8063bf40fac1146105c5578063c1880a9814610602578063c87b56dd1461062b576101b7565b80639791c097116100c65780639791c0971461050d578063a22cb4651461054a578063a6f9dae114610573578063b88d4fde1461059c576101b7565b80638da5cb5b1461048c5780638f32d59b146104b757806395d89b41146104e2576101b7565b80632d551432116101595780634622ab03116101335780634622ab0314610398578063541e771d146103d55780636352211e1461041257806370a082311461044f576101b7565b80632d5514321461032d5780633ccfd60b1461035857806342842e0e1461036f576101b7565b8063095ea7b311610195578063095ea7b31461026157806311dd88451461028a57806323b872dd146102c757806326449235146102f0576101b7565b806301ffc9a7146101bc57806306fdde03146101f9578063081812fc14610224575b600080fd5b3480156101c857600080fd5b506101e360048036038101906101de9190612f4d565b610729565b6040516101f09190612f95565b60405180910390f35b34801561020557600080fd5b5061020e61080b565b60405161021b9190613040565b60405180910390f35b34801561023057600080fd5b5061024b60048036038101906102469190613098565b61089d565b6040516102589190613106565b60405180910390f35b34801561026d57600080fd5b506102886004803603810190610283919061314d565b6108e3565b005b34801561029657600080fd5b506102b160048036038101906102ac91906131f2565b6109fa565b6040516102be9190613040565b60405180910390f35b3480156102d357600080fd5b506102ee60048036038101906102e9919061323f565b610aad565b005b3480156102fc57600080fd5b50610317600480360381019061031291906133c2565b610b0d565b6040516103249190613106565b60405180910390f35b34801561033957600080fd5b50610342610b56565b60405161034f9190613040565b60405180910390f35b34801561036457600080fd5b5061036d610be4565b005b34801561037b57600080fd5b506103966004803603810190610391919061323f565b610caa565b005b3480156103a457600080fd5b506103bf60048036038101906103ba9190613098565b610cca565b6040516103cc9190613040565b60405180910390f35b3480156103e157600080fd5b506103fc60048036038101906103f791906133c2565b610d6a565b6040516104099190613040565b60405180910390f35b34801561041e57600080fd5b5061043960048036038101906104349190613098565b610e20565b6040516104469190613106565b60405180910390f35b34801561045b57600080fd5b506104766004803603810190610471919061340b565b610ed1565b6040516104839190613447565b60405180910390f35b34801561049857600080fd5b506104a1610f88565b6040516104ae9190613483565b60405180910390f35b3480156104c357600080fd5b506104cc610fae565b6040516104d99190612f95565b60405180910390f35b3480156104ee57600080fd5b506104f7611006565b6040516105049190613040565b60405180910390f35b34801561051957600080fd5b50610534600480360381019061052f91906131f2565b611098565b6040516105419190612f95565b60405180910390f35b34801561055657600080fd5b50610571600480360381019061056c91906134ca565b61114c565b005b34801561057f57600080fd5b5061059a60048036038101906105959190613536565b611162565b005b3480156105a857600080fd5b506105c360048036038101906105be9190613604565b6111b7565b005b3480156105d157600080fd5b506105ec60048036038101906105e791906131f2565b611219565b6040516105f99190613106565b60405180910390f35b34801561060e57600080fd5b5061062960048036038101906106249190613687565b611264565b005b34801561063757600080fd5b50610652600480360381019061064d9190613098565b61133f565b60405161065f9190613040565b60405180910390f35b34801561067457600080fd5b5061068f600480360381019061068a9190613708565b611451565b60405161069c9190612f95565b60405180910390f35b6106bf60048036038101906106ba91906131f2565b6114e5565b005b3480156106cd57600080fd5b506106d6611997565b6040516106e39190613854565b60405180910390f35b3480156106f857600080fd5b50610713600480360381019061070e91906133c2565b611b75565b6040516107209190613447565b60405180910390f35b60007f80ac58cd000000000000000000000000000000000000000000000000000000007bffffffffffffffffffffffffffffffffffffffffffffffffffffffff1916827bffffffffffffffffffffffffffffffffffffffffffffffffffffffff191614806107f457507f5b5e139f000000000000000000000000000000000000000000000000000000007bffffffffffffffffffffffffffffffffffffffffffffffffffffffff1916827bffffffffffffffffffffffffffffffffffffffffffffffffffffffff1916145b80610804575061080382611cab565b5b9050919050565b60606000805461081a906138a5565b80601f0160208091040260200160405190810160405280929190818152602001828054610846906138a5565b80156108935780601f1061086857610100808354040283529160200191610893565b820191906000526020600020905b81548152906001019060200180831161087657829003601f168201915b5050505050905090565b60006108a882611d15565b6004600083815260200190815260200160002060009054906101000a900473ffffffffffffffffffffffffffffffffffffffff169050919050565b60006108ee82610e20565b90508073ffffffffffffffffffffffffffffffffffffffff168373ffffffffffffffffffffffffffffffffffffffff160361095e576040517f08c379a000000000000000000000000000000000000000000000000000000000815260040161095590613948565b60405180910390fd5b8073ffffffffffffffffffffffffffffffffffffffff1661097d611d60565b73ffffffffffffffffffffffffffffffffffffffff1614806109ac57506109ab816109a6611d60565b611451565b5b6109eb576040517f08c379a00000000000000000000000000000000000000000000000000000000081526004016109e2906139da565b60405180910390fd5b6109f58383611d68565b505050565b6060600a8383604051610a0e929190613a2a565b90815260200160405180910390208054610a27906138a5565b80601f0160208091040260200160405190810160405280929190818152602001828054610a53906138a5565b8015610aa05780601f10610a7557610100808354040283529160200191610aa0565b820191906000526020600020905b815481529060010190602001808311610a8357829003601f168201915b5050505050905092915050565b610abe610ab8611d60565b82611e21565b610afd576040517f08c379a0000000000000000000000000000000000000000000000000000000008152600401610af490613ab5565b60405180910390fd5b610b08838383611eb6565b505050565b6009818051602081018201805184825260208301602085012081835280955050505050506000915054906101000a900473ffffffffffffffffffffffffffffffffffffffff1681565b600c8054610b63906138a5565b80601f0160208091040260200160405190810160405280929190818152602001828054610b8f906138a5565b8015610bdc5780601f10610bb157610100808354040283529160200191610bdc565b820191906000526020600020905b815481529060010190602001808311610bbf57829003601f168201915b505050505081565b610bec610fae565b610bf557600080fd5b600047905060003373ffffffffffffffffffffffffffffffffffffffff1682604051610c2090613b06565b60006040518083038185875af1925050503d8060008114610c5d576040519150601f19603f3d011682016040523d82523d6000602084013e610c62565b606091505b5050905080610ca6576040517f08c379a0000000000000000000000000000000000000000000000000000000008152600401610c9d90613b67565b60405180910390fd5b5050565b610cc5838383604051806020016040528060008152506111b7565b505050565b600b6020528060005260406000206000915090508054610ce9906138a5565b80601f0160208091040260200160405190810160405280929190818152602001828054610d15906138a5565b8015610d625780601f10610d3757610100808354040283529160200191610d62565b820191906000526020600020905b815481529060010190602001808311610d4557829003601f168201915b505050505081565b600a818051602081018201805184825260208301602085012081835280955050505050506000915090508054610d9f906138a5565b80601f0160208091040260200160405190810160405280929190818152602001828054610dcb906138a5565b8015610e185780601f10610ded57610100808354040283529160200191610e18565b820191906000526020600020905b815481529060010190602001808311610dfb57829003601f168201915b505050505081565b6000806002600084815260200190815260200160002060009054906101000a900473ffffffffffffffffffffffffffffffffffffffff169050600073ffffffffffffffffffffffffffffffffffffffff168173ffffffffffffffffffffffffffffffffffffffff1603610ec8576040517f08c379a0000000000000000000000000000000000000000000000000000000008152600401610ebf90613bd3565b60405180910390fd5b80915050919050565b60008073ffffffffffffffffffffffffffffffffffffffff168273ffffffffffffffffffffffffffffffffffffffff1603610f41576040517f08c379a0000000000000000000000000000000000000000000000000000000008152600401610f3890613c65565b60405180910390fd5b600360008373ffffffffffffffffffffffffffffffffffffffff1673ffffffffffffffffffffffffffffffffffffffff168152602001908152602001600020549050919050565b600860009054906101000a900473ffffffffffffffffffffffffffffffffffffffff1681565b6000600860009054906101000a900473ffffffffffffffffffffffffffffffffffffffff1673ffffffffffffffffffffffffffffffffffffffff163373ffffffffffffffffffffffffffffffffffffffff1614905090565b606060018054611015906138a5565b80601f0160208091040260200160405190810160405280929190818152602001828054611041906138a5565b801561108e5780601f106110635761010080835404028352916020019161108e565b820191906000526020600020905b81548152906001019060200180831161107157829003601f168201915b5050505050905090565b600060036110e984848080601f016020809104026020016040519081016040528093929190818152602001838380828437600081840152601f19601f8201169050808301925050505050505061211c565b101580156111445750600a61114184848080601f016020809104026020016040519081016040528093929190818152602001838380828437600081840152601f19601f8201169050808301925050505050505061211c565b11155b905092915050565b61115e611157611d60565b83836122d1565b5050565b61116a610fae565b61117357600080fd5b80600860006101000a81548173ffffffffffffffffffffffffffffffffffffffff021916908373ffffffffffffffffffffffffffffffffffffffff16021790555050565b6111c86111c2611d60565b83611e21565b611207576040517f08c379a00000000000000000000000000000000000000000000000000000000081526004016111fe90613ab5565b60405180910390fd5b6112138484848461243d565b50505050565b60006009838360405161122d929190613a2a565b908152602001604051809103902060009054906101000a900473ffffffffffffffffffffffffffffffffffffffff16905092915050565b60098484604051611276929190613a2a565b908152602001604051809103902060009054906101000a900473ffffffffffffffffffffffffffffffffffffffff1673ffffffffffffffffffffffffffffffffffffffff163373ffffffffffffffffffffffffffffffffffffffff1614611309576040517f82b4290000000000000000000000000000000000000000000000000000000000815260040160405180910390fd5b8181600a868660405161131d929190613a2a565b90815260200160405180910390209182611338929190613e3c565b5050505050565b606061134a82611d15565b600060066000848152602001908152602001600020805461136a906138a5565b80601f0160208091040260200160405190810160405280929190818152602001828054611396906138a5565b80156113e35780601f106113b8576101008083540402835291602001916113e3565b820191906000526020600020905b8154815290600101906020018083116113c657829003601f168201915b5050505050905060006113f4612499565b9050600081510361140957819250505061144c565b60008251111561143e578082604051602001611426929190613f3d565b6040516020818303038152906040529250505061144c565b611447846124b0565b925050505b919050565b6000600560008473ffffffffffffffffffffffffffffffffffffffff1673ffffffffffffffffffffffffffffffffffffffff16815260200190815260200160002060008373ffffffffffffffffffffffffffffffffffffffff1673ffffffffffffffffffffffffffffffffffffffff16815260200190815260200160002060009054906101000a900460ff16905092915050565b600061153483838080601f016020809104026020016040519081016040528093929190818152602001838380828437600081840152601f19601f82011690508083019250505050505050611b75565b905080341015611579576040517f08c379a000000000000000000000000000000000000000000000000000000000815260040161157090613fad565b60405180910390fd5b600073ffffffffffffffffffffffffffffffffffffffff16600984846040516115a3929190613a2a565b908152602001604051809103902060009054906101000a900473ffffffffffffffffffffffffffffffffffffffff1673ffffffffffffffffffffffffffffffffffffffff161461161f576040517f3a81d6fc00000000000000000000000000000000000000000000000000000000815260040160405180910390fd5b6116298383611098565b61166c5782826040517f7f19f48d000000000000000000000000000000000000000000000000000000008152600401611663929190613ffa565b60405180910390fd5b336009848460405161167f929190613a2a565b908152602001604051809103902060006101000a81548173ffffffffffffffffffffffffffffffffffffffff021916908373ffffffffffffffffffffffffffffffffffffffff16021790555060008383600c6040516020016116e3939291906140ed565b60405160208183030381529060405290506000600d82600e60405160200161170d9392919061411e565b6040516020818303038152906040529050600061172a6007612518565b9050600061177b87878080601f016020809104026020016040519081016040528093929190818152602001838380828437600081840152601f19601f8201169050808301925050505050505061211c565b9050600061178882612526565b905061180e6040518060400160405280601a81526020017f25732068617320726567697374657220646f6d61696e20257321000000000000815250338a8a8080601f016020809104026020016040519081016040528093929190818152602001838380828437600081840152601f19601f82011690508083019250505050505050612686565b60006118448661181d87612725565b84604051602001611830939291906142cb565b604051602081830303815290604052612725565b90506000816040516020016118599190614374565b604051602081830303815290604052905061188b604051806060016040528060398152602001614be660399139611c12565b6118ca6040518060400160405280600e81526020017f46696e616c20746f6b656e55524900000000000000000000000000000000000081525082612888565b6118eb604051806060016040528060398152602001614c1f60399139611c12565b6118f53386612924565b6118ff8582612942565b3360098b8b604051611912929190613a2a565b908152602001604051809103902060006101000a81548173ffffffffffffffffffffffffffffffffffffffff021916908373ffffffffffffffffffffffffffffffffffffffff1602179055508989600b60008881526020019081526020016000209182611980929190613e3c565b5061198b60076129af565b50505050505050505050565b60606119d76040518060400160405280601f81526020017f47657474696e6720616c6c206e616d65732066726f6d20636f6e747261637400815250611c12565b60006119e36007612518565b67ffffffffffffffff8111156119fc576119fb613297565b5b604051908082528060200260200182016040528015611a2f57816020015b6060815260200190600190039081611a1a5790505b50905060005b611a3f6007612518565b811015611b6d57600b60008281526020019081526020016000208054611a64906138a5565b80601f0160208091040260200160405190810160405280929190818152602001828054611a90906138a5565b8015611add5780601f10611ab257610100808354040283529160200191611add565b820191906000526020600020905b815481529060010190602001808311611ac057829003601f168201915b5050505050828281518110611af557611af4614396565b5b6020026020010181905250611b5a6040518060400160405280601781526020017f4e616d6520666f7220746f6b656e20256420697320257300000000000000000081525082848481518110611b4d57611b4c614396565b5b60200260200101516129c5565b8080611b65906143f4565b915050611a35565b508091505090565b600080611b818361211c565b905060008111611bc6576040517f08c379a0000000000000000000000000000000000000000000000000000000008152600401611bbd90614488565b60405180910390fd5b60038111611bde5766038d7ea4c68000915050611c0d565b600381118015611bee5750600581105b15611c0257655af3107a4000915050611c0d565b6509184e72a0009150505b919050565b611ca881604051602401611c269190613040565b6040516020818303038152906040527f41304fac000000000000000000000000000000000000000000000000000000007bffffffffffffffffffffffffffffffffffffffffffffffffffffffff19166020820180517bffffffffffffffffffffffffffffffffffffffffffffffffffffffff8381831617835250505050612a64565b50565b60007f01ffc9a7000000000000000000000000000000000000000000000000000000007bffffffffffffffffffffffffffffffffffffffffffffffffffffffff1916827bffffffffffffffffffffffffffffffffffffffffffffffffffffffff1916149050919050565b611d1e81612a8d565b611d5d576040517f08c379a0000000000000000000000000000000000000000000000000000000008152600401611d5490613bd3565b60405180910390fd5b50565b600033905090565b816004600083815260200190815260200160002060006101000a81548173ffffffffffffffffffffffffffffffffffffffff021916908373ffffffffffffffffffffffffffffffffffffffff160217905550808273ffffffffffffffffffffffffffffffffffffffff16611ddb83610e20565b73ffffffffffffffffffffffffffffffffffffffff167f8c5be1e5ebec7d5bd14f71427d1e84f3dd0314c0f7b2291e5b200ac8c7c3b92560405160405180910390a45050565b600080611e2d83610e20565b90508073ffffffffffffffffffffffffffffffffffffffff168473ffffffffffffffffffffffffffffffffffffffff161480611e6f5750611e6e8185611451565b5b80611ead57508373ffffffffffffffffffffffffffffffffffffffff16611e958461089d565b73ffffffffffffffffffffffffffffffffffffffff16145b91505092915050565b8273ffffffffffffffffffffffffffffffffffffffff16611ed682610e20565b73ffffffffffffffffffffffffffffffffffffffff1614611f2c576040517f08c379a0000000000000000000000000000000000000000000000000000000008152600401611f239061451a565b60405180910390fd5b600073ffffffffffffffffffffffffffffffffffffffff168273ffffffffffffffffffffffffffffffffffffffff1603611f9b576040517f08c379a0000000000000000000000000000000000000000000000000000000008152600401611f92906145ac565b60405180910390fd5b611fa6838383612af9565b611fb1600082611d68565b6001600360008573ffffffffffffffffffffffffffffffffffffffff1673ffffffffffffffffffffffffffffffffffffffff168152602001908152602001600020600082825461200191906145cc565b925050819055506001600360008473ffffffffffffffffffffffffffffffffffffffff1673ffffffffffffffffffffffffffffffffffffffff16815260200190815260200160002060008282546120589190614600565b92505081905550816002600083815260200190815260200160002060006101000a81548173ffffffffffffffffffffffffffffffffffffffff021916908373ffffffffffffffffffffffffffffffffffffffff160217905550808273ffffffffffffffffffffffffffffffffffffffff168473ffffffffffffffffffffffffffffffffffffffff167fddf252ad1be2c89b69c2b068fc378daa952ba7f163c4a11628f55a4df523b3ef60405160405180910390a4612117838383612afe565b505050565b60008060008084519050600092505b808210156122c657600085838151811061214857612147614396565b5b602001015160f81c60f81b9050608060f81b817effffffffffffffffffffffffffffffffffffffffffffffffffffffffffffff19161015612197576001836121909190614600565b92506122b2565b60e060f81b817effffffffffffffffffffffffffffffffffffffffffffffffffffffffffffff191610156121d9576002836121d29190614600565b92506122b1565b60f060f81b817effffffffffffffffffffffffffffffffffffffffffffffffffffffffffffff1916101561221b576003836122149190614600565b92506122b0565b60f8801b817effffffffffffffffffffffffffffffffffffffffffffffffffffffffffffff1916101561225c576004836122559190614600565b92506122af565b60fc60f81b817effffffffffffffffffffffffffffffffffffffffffffffffffffffffffffff1916101561229e576005836122979190614600565b92506122ae565b6006836122ab9190614600565b92505b5b5b5b5b5082806122be906143f4565b93505061212b565b829350505050919050565b8173ffffffffffffffffffffffffffffffffffffffff168373ffffffffffffffffffffffffffffffffffffffff160361233f576040517f08c379a000000000000000000000000000000000000000000000000000000000815260040161233690614680565b60405180910390fd5b80600560008573ffffffffffffffffffffffffffffffffffffffff1673ffffffffffffffffffffffffffffffffffffffff16815260200190815260200160002060008473ffffffffffffffffffffffffffffffffffffffff1673ffffffffffffffffffffffffffffffffffffffff16815260200190815260200160002060006101000a81548160ff0219169083151502179055508173ffffffffffffffffffffffffffffffffffffffff168373ffffffffffffffffffffffffffffffffffffffff167f17307eab39ab6107e8899845ad3d59bd9653f200f220920489ca2b5937696c31836040516124309190612f95565b60405180910390a3505050565b612448848484611eb6565b61245484848484612b03565b612493576040517f08c379a000000000000000000000000000000000000000000000000000000000815260040161248a90614712565b60405180910390fd5b50505050565b606060405180602001604052806000815250905090565b60606124bb82611d15565b60006124c5612499565b905060008151116124e55760405180602001604052806000815250612510565b806124ef84612526565b604051602001612500929190613f3d565b6040516020818303038152906040525b915050919050565b600081600001549050919050565b60606000820361256d576040518060400160405280600181526020017f30000000000000000000000000000000000000000000000000000000000000008152509050612681565b600082905060005b6000821461259f578080612588906143f4565b915050600a826125989190614761565b9150612575565b60008167ffffffffffffffff8111156125bb576125ba613297565b5b6040519080825280601f01601f1916602001820160405280156125ed5781602001600182028036833780820191505090505b5090505b6000851461267a5760018261260691906145cc565b9150600a856126159190614792565b60306126219190614600565b60f81b81838151811061263757612636614396565b5b60200101907effffffffffffffffffffffffffffffffffffffffffffffffffffffffffffff1916908160001a905350600a856126739190614761565b94506125f1565b8093505050505b919050565b61272083838360405160240161269e939291906147c3565b6040516020818303038152906040527fe0e9ad4f000000000000000000000000000000000000000000000000000000007bffffffffffffffffffffffffffffffffffffffffffffffffffffffff19166020820180517bffffffffffffffffffffffffffffffffffffffffffffffffffffffff8381831617835250505050612a64565b505050565b6060600082510361274757604051806020016040528060008152509050612883565b6000604051806060016040528060408152602001614c5860409139905060006003600285516127769190614600565b6127809190614761565b600461278c9190614808565b67ffffffffffffffff8111156127a5576127a4613297565b5b6040519080825280601f01601f1916602001820160405280156127d75781602001600182028036833780820191505090505b509050600182016020820185865187015b80821015612843576003820191508151603f8160121c168501518453600184019350603f81600c1c168501518453600184019350603f8160061c168501518453600184019350603f81168501518453600184019350506127e8565b505060038651066001811461285f57600281146128725761287a565b603d6001830353603d600283035361287a565b603d60018303535b50505080925050505b919050565b612920828260405160240161289e92919061484a565b6040516020818303038152906040527f4b5c4277000000000000000000000000000000000000000000000000000000007bffffffffffffffffffffffffffffffffffffffffffffffffffffffff19166020820180517bffffffffffffffffffffffffffffffffffffffffffffffffffffffff8381831617835250505050612a64565b5050565b61293e828260405180602001604052806000815250612c8a565b5050565b61294b82612a8d565b61298a576040517f08c379a0000000000000000000000000000000000000000000000000000000008152600401612981906148f3565b60405180910390fd5b806006600084815260200190815260200160002090816129aa9190614913565b505050565b6001816000016000828254019250508190555050565b612a5f8383836040516024016129dd939291906149e5565b6040516020818303038152906040527f5970e089000000000000000000000000000000000000000000000000000000007bffffffffffffffffffffffffffffffffffffffffffffffffffffffff19166020820180517bffffffffffffffffffffffffffffffffffffffffffffffffffffffff8381831617835250505050612a64565b505050565b60008151905060006a636f6e736f6c652e6c6f679050602083016000808483855afa5050505050565b60008073ffffffffffffffffffffffffffffffffffffffff166002600084815260200190815260200160002060009054906101000a900473ffffffffffffffffffffffffffffffffffffffff1673ffffffffffffffffffffffffffffffffffffffff1614159050919050565b505050565b505050565b6000612b248473ffffffffffffffffffffffffffffffffffffffff16612ce5565b15612c7d578373ffffffffffffffffffffffffffffffffffffffff1663150b7a02612b4d611d60565b8786866040518563ffffffff1660e01b8152600401612b6f9493929190614a7f565b6020604051808303816000875af1925050508015612bab57506040513d601f19601f82011682018060405250810190612ba89190614ae0565b60015b612c2d573d8060008114612bdb576040519150601f19603f3d011682016040523d82523d6000602084013e612be0565b606091505b506000815103612c25576040517f08c379a0000000000000000000000000000000000000000000000000000000008152600401612c1c90614712565b60405180910390fd5b805181602001fd5b63150b7a0260e01b7bffffffffffffffffffffffffffffffffffffffffffffffffffffffff1916817bffffffffffffffffffffffffffffffffffffffffffffffffffffffff191614915050612c82565b600190505b949350505050565b612c948383612d08565b612ca16000848484612b03565b612ce0576040517f08c379a0000000000000000000000000000000000000000000000000000000008152600401612cd790614712565b60405180910390fd5b505050565b6000808273ffffffffffffffffffffffffffffffffffffffff163b119050919050565b600073ffffffffffffffffffffffffffffffffffffffff168273ffffffffffffffffffffffffffffffffffffffff1603612d77576040517f08c379a0000000000000000000000000000000000000000000000000000000008152600401612d6e90614b59565b60405180910390fd5b612d8081612a8d565b15612dc0576040517f08c379a0000000000000000000000000000000000000000000000000000000008152600401612db790614bc5565b60405180910390fd5b612dcc60008383612af9565b6001600360008473ffffffffffffffffffffffffffffffffffffffff1673ffffffffffffffffffffffffffffffffffffffff1681526020019081526020016000206000828254612e1c9190614600565b92505081905550816002600083815260200190815260200160002060006101000a81548173ffffffffffffffffffffffffffffffffffffffff021916908373ffffffffffffffffffffffffffffffffffffffff160217905550808273ffffffffffffffffffffffffffffffffffffffff16600073ffffffffffffffffffffffffffffffffffffffff167fddf252ad1be2c89b69c2b068fc378daa952ba7f163c4a11628f55a4df523b3ef60405160405180910390a4612edd60008383612afe565b5050565b6000604051905090565b600080fd5b600080fd5b60007fffffffff0000000000000000000000000000000000000000000000000000000082169050919050565b612f2a81612ef5565b8114612f3557600080fd5b50565b600081359050612f4781612f21565b92915050565b600060208284031215612f6357612f62612eeb565b5b6000612f7184828501612f38565b91505092915050565b60008115159050919050565b612f8f81612f7a565b82525050565b6000602082019050612faa6000830184612f86565b92915050565b600081519050919050565b600082825260208201905092915050565b60005b83811015612fea578082015181840152602081019050612fcf565b60008484015250505050565b6000601f19601f8301169050919050565b600061301282612fb0565b61301c8185612fbb565b935061302c818560208601612fcc565b61303581612ff6565b840191505092915050565b6000602082019050818103600083015261305a8184613007565b905092915050565b6000819050919050565b61307581613062565b811461308057600080fd5b50565b6000813590506130928161306c565b92915050565b6000602082840312156130ae576130ad612eeb565b5b60006130bc84828501613083565b91505092915050565b600073ffffffffffffffffffffffffffffffffffffffff82169050919050565b60006130f0826130c5565b9050919050565b613100816130e5565b82525050565b600060208201905061311b60008301846130f7565b92915050565b61312a816130e5565b811461313557600080fd5b50565b60008135905061314781613121565b92915050565b6000806040838503121561316457613163612eeb565b5b600061317285828601613138565b925050602061318385828601613083565b9150509250929050565b600080fd5b600080fd5b600080fd5b60008083601f8401126131b2576131b161318d565b5b8235905067ffffffffffffffff8111156131cf576131ce613192565b5b6020830191508360018202830111156131eb576131ea613197565b5b9250929050565b6000806020838503121561320957613208612eeb565b5b600083013567ffffffffffffffff81111561322757613226612ef0565b5b6132338582860161319c565b92509250509250929050565b60008060006060848603121561325857613257612eeb565b5b600061326686828701613138565b935050602061327786828701613138565b925050604061328886828701613083565b9150509250925092565b600080fd5b7f4e487b7100000000000000000000000000000000000000000000000000000000600052604160045260246000fd5b6132cf82612ff6565b810181811067ffffffffffffffff821117156132ee576132ed613297565b5b80604052505050565b6000613301612ee1565b905061330d82826132c6565b919050565b600067ffffffffffffffff82111561332d5761332c613297565b5b61333682612ff6565b9050602081019050919050565b82818337600083830152505050565b600061336561336084613312565b6132f7565b90508281526020810184848401111561338157613380613292565b5b61338c848285613343565b509392505050565b600082601f8301126133a9576133a861318d565b5b81356133b9848260208601613352565b91505092915050565b6000602082840312156133d8576133d7612eeb565b5b600082013567ffffffffffffffff8111156133f6576133f5612ef0565b5b61340284828501613394565b91505092915050565b60006020828403121561342157613420612eeb565b5b600061342f84828501613138565b91505092915050565b61344181613062565b82525050565b600060208201905061345c6000830184613438565b92915050565b600061346d826130c5565b9050919050565b61347d81613462565b82525050565b60006020820190506134986000830184613474565b92915050565b6134a781612f7a565b81146134b257600080fd5b50565b6000813590506134c48161349e565b92915050565b600080604083850312156134e1576134e0612eeb565b5b60006134ef85828601613138565b9250506020613500858286016134b5565b9150509250929050565b61351381613462565b811461351e57600080fd5b50565b6000813590506135308161350a565b92915050565b60006020828403121561354c5761354b612eeb565b5b600061355a84828501613521565b91505092915050565b600067ffffffffffffffff82111561357e5761357d613297565b5b61358782612ff6565b9050602081019050919050565b60006135a76135a284613563565b6132f7565b9050828152602081018484840111156135c3576135c2613292565b5b6135ce848285613343565b509392505050565b600082601f8301126135eb576135ea61318d565b5b81356135fb848260208601613594565b91505092915050565b6000806000806080858703121561361e5761361d612eeb565b5b600061362c87828801613138565b945050602061363d87828801613138565b935050604061364e87828801613083565b925050606085013567ffffffffffffffff81111561366f5761366e612ef0565b5b61367b878288016135d6565b91505092959194509250565b600080600080604085870312156136a1576136a0612eeb565b5b600085013567ffffffffffffffff8111156136bf576136be612ef0565b5b6136cb8782880161319c565b9450945050602085013567ffffffffffffffff8111156136ee576136ed612ef0565b5b6136fa8782880161319c565b925092505092959194509250565b6000806040838503121561371f5761371e612eeb565b5b600061372d85828601613138565b925050602061373e85828601613138565b9150509250929050565b600081519050919050565b600082825260208201905092915050565b6000819050602082019050919050565b600082825260208201905092915050565b600061379082612fb0565b61379a8185613774565b93506137aa818560208601612fcc565b6137b381612ff6565b840191505092915050565b60006137ca8383613785565b905092915050565b6000602082019050919050565b60006137ea82613748565b6137f48185613753565b93508360208202850161380685613764565b8060005b85811015613842578484038952815161382385826137be565b945061382e836137d2565b925060208a0199505060018101905061380a565b50829750879550505050505092915050565b6000602082019050818103600083015261386e81846137df565b905092915050565b7f4e487b7100000000000000000000000000000000000000000000000000000000600052602260045260246000fd5b600060028204905060018216806138bd57607f821691505b6020821081036138d0576138cf613876565b5b50919050565b7f4552433732313a20617070726f76616c20746f2063757272656e74206f776e6560008201527f7200000000000000000000000000000000000000000000000000000000000000602082015250565b6000613932602183612fbb565b915061393d826138d6565b604082019050919050565b6000602082019050818103600083015261396181613925565b9050919050565b7f4552433732313a20617070726f76652063616c6c6572206973206e6f7420746f60008201527f6b656e206f776e6572206e6f7220617070726f76656420666f7220616c6c0000602082015250565b60006139c4603e83612fbb565b91506139cf82613968565b604082019050919050565b600060208201905081810360008301526139f3816139b7565b9050919050565b600081905092915050565b6000613a1183856139fa565b9350613a1e838584613343565b82840190509392505050565b6000613a37828486613a05565b91508190509392505050565b7f4552433732313a2063616c6c6572206973206e6f7420746f6b656e206f776e6560008201527f72206e6f7220617070726f766564000000000000000000000000000000000000602082015250565b6000613a9f602e83612fbb565b9150613aaa82613a43565b604082019050919050565b60006020820190508181036000830152613ace81613a92565b9050919050565b600081905092915050565b50565b6000613af0600083613ad5565b9150613afb82613ae0565b600082019050919050565b6000613b1182613ae3565b9150819050919050565b7f4661696c656420746f2077697468647261772045746865720000000000000000600082015250565b6000613b51601883612fbb565b9150613b5c82613b1b565b602082019050919050565b60006020820190508181036000830152613b8081613b44565b9050919050565b7f4552433732313a20696e76616c696420746f6b656e2049440000000000000000600082015250565b6000613bbd601883612fbb565b9150613bc882613b87565b602082019050919050565b60006020820190508181036000830152613bec81613bb0565b9050919050565b7f4552433732313a2061646472657373207a65726f206973206e6f74206120766160008201527f6c6964206f776e65720000000000000000000000000000000000000000000000602082015250565b6000613c4f602983612fbb565b9150613c5a82613bf3565b604082019050919050565b60006020820190508181036000830152613c7e81613c42565b9050919050565b600082905092915050565b60008190508160005260206000209050919050565b60006020601f8301049050919050565b600082821b905092915050565b600060088302613cf27fffffffffffffffffffffffffffffffffffffffffffffffffffffffffffffffff82613cb5565b613cfc8683613cb5565b95508019841693508086168417925050509392505050565b6000819050919050565b6000613d39613d34613d2f84613062565b613d14565b613062565b9050919050565b6000819050919050565b613d5383613d1e565b613d67613d5f82613d40565b848454613cc2565b825550505050565b600090565b613d7c613d6f565b613d87818484613d4a565b505050565b5b81811015613dab57613da0600082613d74565b600181019050613d8d565b5050565b601f821115613df057613dc181613c90565b613dca84613ca5565b81016020851015613dd9578190505b613ded613de585613ca5565b830182613d8c565b50505b505050565b600082821c905092915050565b6000613e1360001984600802613df5565b1980831691505092915050565b6000613e2c8383613e02565b9150826002028217905092915050565b613e468383613c85565b67ffffffffffffffff811115613e5f57613e5e613297565b5b613e6982546138a5565b613e74828285613daf565b6000601f831160018114613ea35760008415613e91578287013590505b613e9b8582613e20565b865550613f03565b601f198416613eb186613c90565b60005b82811015613ed957848901358255600182019150602085019450602081019050613eb4565b86831015613ef65784890135613ef2601f891682613e02565b8355505b6001600288020188555050505b50505050505050565b6000613f1782612fb0565b613f2181856139fa565b9350613f31818560208601612fcc565b80840191505092915050565b6000613f498285613f0c565b9150613f558284613f0c565b91508190509392505050565b7f496e73756666696369656e742076616c75652100000000000000000000000000600082015250565b6000613f97601383612fbb565b9150613fa282613f61565b602082019050919050565b60006020820190508181036000830152613fc681613f8a565b9050919050565b6000613fd98385612fbb565b9350613fe6838584613343565b613fef83612ff6565b840190509392505050565b60006020820190508181036000830152614015818486613fcd565b90509392505050565b7f2e00000000000000000000000000000000000000000000000000000000000000600082015250565b60006140546001836139fa565b915061405f8261401e565b600182019050919050565b60008154614077816138a5565b61408181866139fa565b9450600182166000811461409c57600181146140b1576140e4565b60ff19831686528115158202860193506140e4565b6140ba85613c90565b60005b838110156140dc578154818901526001820191506020810190506140bd565b838801955050505b50505092915050565b60006140fa828587613a05565b915061410582614047565b9150614111828461406a565b9150819050949350505050565b600061412a828661406a565b91506141368285613f0c565b9150614142828461406a565b9150819050949350505050565b7f7b226e616d65223a202200000000000000000000000000000000000000000000600082015250565b6000614185600a836139fa565b91506141908261414f565b600a82019050919050565b7f222c20226465736372697074696f6e223a20224120646f6d61696e206f6e207460008201527f6865204e696e6a61206e616d652073657276696365222c2022696d616765223a60208201527f2022646174613a696d6167652f7376672b786d6c3b6261736536342c00000000604082015250565b600061421d605c836139fa565b91506142288261419b565b605c82019050919050565b7f222c226c656e677468223a220000000000000000000000000000000000000000600082015250565b6000614269600c836139fa565b915061427482614233565b600c82019050919050565b7f227d000000000000000000000000000000000000000000000000000000000000600082015250565b60006142b56002836139fa565b91506142c08261427f565b600282019050919050565b60006142d682614178565b91506142e28286613f0c565b91506142ed82614210565b91506142f98285613f0c565b91506143048261425c565b91506143108284613f0c565b915061431b826142a8565b9150819050949350505050565b7f646174613a6170706c69636174696f6e2f6a736f6e3b6261736536342c000000600082015250565b600061435e601d836139fa565b915061436982614328565b601d82019050919050565b600061437f82614351565b915061438b8284613f0c565b915081905092915050565b7f4e487b7100000000000000000000000000000000000000000000000000000000600052603260045260246000fd5b7f4e487b7100000000000000000000000000000000000000000000000000000000600052601160045260246000fd5b60006143ff82613062565b91507fffffffffffffffffffffffffffffffffffffffffffffffffffffffffffffffff8203614431576144306143c5565b5b600182019050919050565b7f446f6d61696e206c656e677468206d757374206d6f7265207468616e20302100600082015250565b6000614472601f83612fbb565b915061447d8261443c565b602082019050919050565b600060208201905081810360008301526144a181614465565b9050919050565b7f4552433732313a207472616e736665722066726f6d20696e636f72726563742060008201527f6f776e6572000000000000000000000000000000000000000000000000000000602082015250565b6000614504602583612fbb565b915061450f826144a8565b604082019050919050565b60006020820190508181036000830152614533816144f7565b9050919050565b7f4552433732313a207472616e7366657220746f20746865207a65726f2061646460008201527f7265737300000000000000000000000000000000000000000000000000000000602082015250565b6000614596602483612fbb565b91506145a18261453a565b604082019050919050565b600060208201905081810360008301526145c581614589565b9050919050565b60006145d782613062565b91506145e283613062565b92508282039050818111156145fa576145f96143c5565b5b92915050565b600061460b82613062565b915061461683613062565b925082820190508082111561462e5761462d6143c5565b5b92915050565b7f4552433732313a20617070726f766520746f2063616c6c657200000000000000600082015250565b600061466a601983612fbb565b915061467582614634565b602082019050919050565b600060208201905081810360008301526146998161465d565b9050919050565b7f4552433732313a207472616e7366657220746f206e6f6e20455243373231526560008201527f63656976657220696d706c656d656e7465720000000000000000000000000000602082015250565b60006146fc603283612fbb565b9150614707826146a0565b604082019050919050565b6000602082019050818103600083015261472b816146ef565b9050919050565b7f4e487b7100000000000000000000000000000000000000000000000000000000600052601260045260246000fd5b600061476c82613062565b915061477783613062565b92508261478757614786614732565b5b828204905092915050565b600061479d82613062565b91506147a883613062565b9250826147b8576147b7614732565b5b828206905092915050565b600060608201905081810360008301526147dd8186613007565b90506147ec60208301856130f7565b81810360408301526147fe8184613007565b9050949350505050565b600061481382613062565b915061481e83613062565b925082820261482c81613062565b91508282048414831517614843576148426143c5565b5b5092915050565b600060408201905081810360008301526148648185613007565b905081810360208301526148788184613007565b90509392505050565b7f45524337323155524953746f726167653a2055524920736574206f66206e6f6e60008201527f6578697374656e7420746f6b656e000000000000000000000000000000000000602082015250565b60006148dd602e83612fbb565b91506148e882614881565b604082019050919050565b6000602082019050818103600083015261490c816148d0565b9050919050565b61491c82612fb0565b67ffffffffffffffff81111561493557614934613297565b5b61493f82546138a5565b61494a828285613daf565b600060209050601f83116001811461497d576000841561496b578287015190505b6149758582613e20565b8655506149dd565b601f19841661498b86613c90565b60005b828110156149b35784890151825560018201915060208501945060208101905061498e565b868310156149d057848901516149cc601f891682613e02565b8355505b6001600288020188555050505b505050505050565b600060608201905081810360008301526149ff8186613007565b9050614a0e6020830185613438565b8181036040830152614a208184613007565b9050949350505050565b600081519050919050565b600082825260208201905092915050565b6000614a5182614a2a565b614a5b8185614a35565b9350614a6b818560208601612fcc565b614a7481612ff6565b840191505092915050565b6000608082019050614a9460008301876130f7565b614aa160208301866130f7565b614aae6040830185613438565b8181036060830152614ac08184614a46565b905095945050505050565b600081519050614ada81612f21565b92915050565b600060208284031215614af657614af5612eeb565b5b6000614b0484828501614acb565b91505092915050565b7f4552433732313a206d696e7420746f20746865207a65726f2061646472657373600082015250565b6000614b43602083612fbb565b9150614b4e82614b0d565b602082019050919050565b60006020820190508181036000830152614b7281614b36565b9050919050565b7f4552433732313a20746f6b656e20616c7265616479206d696e74656400000000600082015250565b6000614baf601c83612fbb565b9150614bba82614b79565b602082019050919050565b60006020820190508181036000830152614bde81614ba2565b905091905056fe0a2d2d2d2d2d2d2d2d2d2d2d2d2d2d2d2d2d2d2d2d2d2d2d2d2d2d2d2d2d2d2d2d2d2d2d2d2d2d2d2d2d2d2d2d2d2d2d2d2d2d2d2d2d2d2d2d2d2d2d2d2d2d2d2d2d2d2d2d2d2d2d2d2d2d2d2d2d2d2d2d2d2d2d2d2d2d2d2d2d2d2d2d2d2d2d2d2d2d2d2d2d2d2d2d2d2d2d2d2d2d2d2d0a4142434445464748494a4b4c4d4e4f505152535455565758595a6162636465666768696a6b6c6d6e6f707172737475767778797a303132333435363738392b2fa26469706673582212204715fcf1e4d8034ec712ff2144258e0b3b497d10d96df069c07f1234904e571464736f6c6343000811003354686520646f6d61696e20636f6e7472637420686173206265656e206465706c6f796564213c73766720786d6c6e733d22687474703a2f2f7777772e77332e6f72672f323030302f737667222077696474683d2232373022206865696768743d22323730222066696c6c3d226e6f6e65223e3c706174682066696c6c3d2275726c282342292220643d224d302030683237307632373048307a222f3e3c646566733e3c66696c7465722069643d22412220636f6c6f722d696e746572706f6c6174696f6e2d66696c746572733d2273524742222066696c746572556e6974733d227573657253706163654f6e55736522206865696768743d22323730222077696474683d22323730223e3c666544726f70536861646f772064783d2230222064793d22312220737464446576696174696f6e3d22322220666c6f6f642d6f7061636974793d222e323235222077696474683d223230302522206865696768743d2232303025222f3e3c2f66696c7465723e3c2f646566733e3c7061746820643d224d37322e3836332034322e393439632d2e3636382d2e3338372d312e3432362d2e35392d322e3139372d2e3539732d312e3532392e3230342d322e3139372e35396c2d31302e30383120362e3033322d362e383520332e3933342d31302e30383120362e303332632d2e3636382e3338372d312e3432362e35392d322e3139372e3539732d312e3532392d2e3230342d322e3139372d2e35396c2d382e3031332d342e37323161342e353220342e35322030203020312d312e3538392d312e363136632d2e3338342d2e3636352d2e3539342d312e3431382d2e3630382d322e313837762d392e3331632d2e3031332d2e3737352e3138352d312e3533382e3537322d322e32303861342e323520342e323520302030203120312e3632352d312e3539356c372e3838342d342e3539632e3636382d2e33383720312e3432362d2e353920322e3139372d2e353973312e3532392e32303420322e3139372e35396c372e38383420342e353961342e353220342e353220302030203120312e35383920312e363136632e3338342e3636352e35393420312e3431382e36303820322e31383776362e3033326c362e38352d342e303635762d362e303332632e3031332d2e3737352d2e3138352d312e3533382d2e3537322d322e32303861342e323520342e32352030203020302d312e3632352d312e3539354c34312e3435362032342e3539632d2e3636382d2e3338372d312e3432362d2e35392d322e3139372d2e3539732d312e3532392e3230342d322e3139372e35396c2d31342e38363420382e36353561342e323520342e32352030203020302d312e36323520312e353935632d2e3338372e36372d2e35383520312e3433342d2e35373220322e3230387631372e343431632d2e3031332e3737352e31383520312e3533382e35373220322e32303861342e323520342e323520302030203020312e36323520312e3539356c31342e38363420382e363535632e3636382e33383720312e3432362e353920322e3139372e353973312e3532392d2e32303420322e3139372d2e35396c31302e3038312d352e39303120362e38352d342e3036352031302e3038312d352e393031632e3636382d2e33383720312e3432362d2e353920322e3139372d2e353973312e3532392e32303420322e3139372e35396c372e38383420342e353961342e353220342e353220302030203120312e35383920312e363136632e3338342e3636352e35393420312e3431382e36303820322e31383776392e333131632e3031332e3737352d2e31383520312e3533382d2e35373220322e32303861342e323520342e32352030203020312d312e36323520312e3539356c2d372e38383420342e373231632d2e3636382e3338372d312e3432362e35392d322e3139372e3539732d312e3532392d2e3230342d322e3139372d2e35396c2d372e3838342d342e353961342e353220342e35322030203020312d312e3538392d312e363136632d2e3338352d2e3636352d2e3539342d312e3431382d2e3630382d322e313837762d362e3033326c2d362e383520342e30363576362e303332632d2e3031332e3737352e31383520312e3533382e35373220322e32303861342e323520342e323520302030203020312e36323520312e3539356c31342e38363420382e363535632e3636382e33383720312e3432362e353920322e3139372e353973312e3532392d2e32303420322e3139372d2e35396c31342e3836342d382e363535632e3635372d2e33393420312e3230342d2e393520312e3538392d312e363136732e3539342d312e3431382e3630392d322e3138375635352e353338632e3031332d2e3737352d2e3138352d312e3533382d2e3537322d322e32303861342e323520342e32352030203020302d312e3632352d312e3539356c2d31342e3939332d382e3738367a222066696c6c3d2223666666222f3e3c646566733e3c6c696e6561724772616469656e742069643d2242222078313d2230222079313d2230222078323d22323730222079323d2232373022206772616469656e74556e6974733d227573657253706163654f6e557365223e3c73746f702073746f702d636f6c6f723d2223636235656565222f3e3c73746f70206f66667365743d2231222073746f702d636f6c6f723d2223306364376534222073746f702d6f7061636974793d222e3939222f3e3c2f6c696e6561724772616469656e743e3c2f646566733e3c7465787420783d2233322e352220793d223233312220666f6e742d73697a653d223237222066696c6c3d2223666666222066696c7465723d2275726c282341292220666f6e742d66616d696c793d22506c7573204a616b617274612053616e732c44656a6156752053616e732c4e6f746f20436f6c6f7220456d6f6a692c4170706c6520436f6c6f7220456d6f6a692c73616e732d73657269662220666f6e742d7765696768743d22626f6c64223e",
  "linkReferences": {},
  "deployedLinkReferences": {}
}